:100000000C94DB020C9422030C9422030C94220324
:100010000C9422030C9422030C9422030C942203CC
:100020000C9422030C9422030C9427240C94FB249C
:100030000C945A1E0C9422030C9422030C94220359
:100040000C9422030C9422030C9422030C9422039C
:100050000C9422030C94B11E0C9422030C942203E2
:100060000C9422030C9422030C9422030C9422037C
:100070000C9422030C9422030C9422030C9422036C
:100080000C9422030C9422030C9422030C9422035C
:100090000C9422030C9422030C9422030C9422034C
:1000A0000C9422030C9422030C94220329001400C4
:1000B0001A000800150017001C0018000C001200A0
:1000C000130028002B0004001600070009000A0096
:1000D0000B000D000E000F0033000000E100640073
:1000E0001D001B000600190005001100100036005D
:1000F00037002A00E000E300E200000000002C00CE
:1001000000000000000001510251E5000100010063
:1001100001000100010001000100010001000100D7
:1001200001000100010001000100010001000100C7
:1001300001000100010001000100000001000100B8
:1001400001000100010001000100010001000100A7
:100150000100010001000100010000000000010099
:10016000000000000000010001000100010001008A
:100170000100010001000100010001000100010077
:100180000100010001000100010001000100010067
:100190000100010001000100010000000100010058
:1001A0000100010001000100010001000100010047
:1001B0000100010001000100010000000000010039
:1001C000000000000000010001000100000000002C
:1001D000000000002A2B28000000000000000000A2
:1001E0000000000000000029000000002C1E342048
:1001F000212224342627252E362D3738271E1F206E
:100200002122232425263333362E37381F040506B2
:100210000708090A0B0C0D0E0F10111213141516F6
:100220001718191A1B1C1D2F3130232D35040506F4
:100230000708090A0B0C0D0E0F10111213141516D6
:100240001718191A1B1C1D2F3130354C00000000E7
:10025000000000000000000000000000000000009E
:10026000000000000000000000000000000000008E
:100270007E0F00D4FFFFFFC700000078FD377A58DB
:100280005A000004E6D6B446020021011600000020
:10029000742FE5A3E002B301275D003D8889C654B1
:1002A00036C3174FE4DB9DBF300CD531D4293991CB
:1002B000097AE5B28DA09215D2700BCBAF20FA046B
:1002C000A0B66D6CADCF91BB7466652FB9711B9AEA
:1002D00085DEE9BB34F75BB012F2352826CF2E8BD2
:1002E000C0E8B045A7F60F875F825510BB9D01E8B7
:1002F000575E843FF7808E1A33119B5186792BC845
:10030000D62F60C0E448A8F46F58B5B6D0A86BE704
:100310001248CBBD3046653EE33E1D55E2BBE65478
:1003200096AA4ADE0E4D9221142DA196CADBFB8AB5
:10033000515A73FE2B866F98470106C8568078760F
:10034000562C80DA833DECEBBDC4ED343BDC6C61B4
:1003500003E14B4D80CD0E53D4FD923CFEF0B03303
:100360000F86E1B7A1546A6A949E8D6CA1404A8FB2
:10037000DC5CA7FAEDC198DF7FD7EED27A0B32565C
:1003800034740CE92608A36F3FC497E518E4FED443
:100390006741195C779A97B53CEA9E0C3885953D84
:1003A000B47F3548D97722EE333C2F00E7E3F012D3
:1003B0009622C3012CCDA90FF20A020F6D1AD8E2C2
:1003C0005C000000FC9919A3D0B801470001C302EA
:1003D000B405000081F032BAB1C467FB020000002E
:1003E0000004595A1C037600690061006C003A0051
:1003F00066003600340063003200620033006300A0
:100400000000140341006C007000680061005F0090
:1004100044007200650000000C0341004E004400DF
:100420005200450000000403090409025B000301B7
:1004300000A0FA09040000010301010009211101D3
:1004400000012240000705810308000A0904010099
:10045000020300000009211101000122220007050A
:1004600082032000010705030320000109040200A4
:10047000010300000009211101000122BC00070551
:10048000840320000A12011001000000084141020B
:10049000000100010203010660FF0961A101096278
:1004A000150026FF009520750881020963150026B6
:1004B000FF00952075089102C005010902A1018580
:1004C000020901A100050919012905150025019559
:1004D0000575018102950175038101050109300946
:1004E000311581257F95027508810609381581250A
:1004F0007F950175088106050C0A38021581257F54
:10050000950175088106C0C005010980A101850318
:1005100019012AB700150126B70095017510810051
:10052000C0050C0901A101850419012AA0021501C9
:1005300026A002950175108100C005010906A101E0
:100540008505050719E029E71500250195087501BE
:1005500081020507190029EF1500250195F07501A5
:10056000810205081901290595057501910295017A
:1005700075039101C005010906A101050719E029CC
:10058000E71500250195087501810295017508811F
:10059000010507190029FF150026FF0095067508BB
:1005A000810005081901290595057501910295013C
:1005B00075039101C00011241FBECFEFDAE0DEBF4A
:1005C000CDBF04B603FE27C080919C0290919D028E
:1005D000A0919E02B0919F028730904BA740B04BF4
:1005E000D1F410929C0210929D0210929E021092E1
:1005F0009F0214BE84B7877F84BF0FB6F894A89576
:1006000080916000886180936000109260000FBE4E
:10061000E0E0F8E3099511E0A0E0B1E0ECEBFEE4E6
:1006200002C005900D92A03AB107D9F722E0A0EAE6
:10063000B1E001C01D92AC39B207E1F70E94DF20A2
:100640000C9434270C94000081E0089581E0089513
:100650000C94260308950C942A031F93CF93DF93E1
:1006600000D000D00F92CDB7DEB749835A836B8399
:100670003091D10189819A8131111DC06623B9F071
:100680002223A9F00E94541B182F682F89819A8178
:100690000E94001B69817A81812F0F900F900F902B
:1006A0000F900F90DF91CF911F910C94400E0E94FC
:1006B0002C1B182FEFCF0E94541B69817A81EDCF3C
:1006C000FC01262F408151816281738184810C94C9
:1006D0002D03CF93DF93EC0160E00E946003BE0125
:1006E000DF91CF910C942B038F929F92AF92BF9288
:1006F000CF92DF92EF92FF920F931F936B017C01D9
:1007000081E090E0A0E0B0E04C015D0104C0880C05
:10071000991CAA1CBB1C4A95D2F7B501A4014C0137
:100720005D0104C0880C991CAA1CBB1C2A95D2F739
:10073000482959296A297B2904C0880F991FAA1FB3
:10074000BB1F0A95D2F78A019B010C211D212E2186
:100750003F21041715072607370789F48C299D299F
:10076000AE29BF29BC01CD011F910F91FF90EF90E1
:10077000DF90CF90BF90AF909F908F90089580951D
:100780009095A095B0958C219D21AE21BF21EACFF7
:100790000F93382F262F60912802709129028091A3
:1007A0002A0290912B02042F432F0E9474030F9171
:1007B0000C943E1A0E94001F0E94A01C811102C0CE
:1007C0000E94441D0C941B070C941E0708950E9460
:1007D0006A160E94E6032FEF84E39CE021508040DC
:1007E0009040E1F700C000000C94D51E0F931F93BA
:1007F000CF93DF938C01EB010E943F0B882359F1CB
:10080000BE01C8010E942803882329F1BE01C80146
:100810000E94BC0F8823F9F0BE01C8010E940E108F
:100820008823C9F0BE01C8010E943111882399F0C4
:100830008A81882339F001158CE5180751F00E3DA7
:100840001C4579F0CE01DF91CF911F910F910C944F
:1008500024030E94E70380E0DF91CF911F910F9165
:1008600008950E94441DF7CFCF93DF93EC0161E020
:100870000E946003BE01DF91CF910C94F603DF92DA
:10088000EF92FF920F931F93CF93DF93E82FF0E047
:10089000E453FE4FD490282F26952695269530E0D8
:1008A000F901E459FD4F0491877010E0082E02C051
:1008B000159507950A94E2F701701127F901E45A9A
:1008C000FD4FE490F12C082E02C0F594E7940A94B1
:1008D000E2F791E0E922FF24F901E45BFD4FC491C6
:1008E000D0E002C0D595C7958A95E2F7C170DD27A3
:1008F0000115110519F081EE0E94E812E114F104CE
:1009000019F086EE0E94E8128D2D0E94E713EF2861
:1009100019F086EE0E947A13012B19F081EE0E94E5
:100920007A13CD2B51F08CE2DF91CF911F910F9173
:10093000FF90EF90DF900C94E713DF91CF911F9120
:100940000F91FF90EF90DF900895EF92FF920F9339
:100950001F93CF93DF93EC01162F0AE08881882341
:1009600009F454C0813009F04EC08981813099F476
:100970007E0122E0E20EF11C8A810E94E713E7016A
:100980002196812F815050F3EFE9FFE03197F1F785
:1009900000C00000F7CF823041F47E0182E0E80E13
:1009A000F11C8A810E94E812EACF833041F47E0173
:1009B000E2E0EE0EF11C8A810E947A13E0CF8430CF
:1009C00011F02196DDCF2A81229690E080E0AE01E1
:1009D0004F5F5F4F2053330B2A30310548F00197AA
:1009E00078F2EFE9FFE03197F1F700C00000F7CFB0
:1009F000089FB001099F700D1124C901860F971F30
:100A00002981EA01E4CF0E943F04BACFDF91CF9160
:100A10001F910F91FF90EF90089560E00C94A50452
:100A200008950C94100581E008950C941305CF935C
:100A3000C82F0E9411058C2FCF910C94150590E0C2
:100A400080E008950895FC01EE0FFF1FE458FD4F6C
:100A5000859194910895CF93DF930E94400E0E9458
:100A60004006EC01811520E5920708F042C081158F
:100A700030E4930708F0BDC0883E910528F5803E1C
:100A8000910508F09DC0883A910588F4853A910552
:100A900008F08FC08130910509F492C0009709F4E5
:100AA0008FC0049708F08CC0D0E0C0E089C08F3BB5
:100AB000910508F489C0805C9109C03CD105A0F380
:100AC0000E942305EC017CC08115904250F4C115B1
:100AD00081E0D80708F074C0C03FD10528F3D06585
:100AE0006FC0C11590E3D90708F079C0CE019F709F
:100AF000E7CF811525E5920758F5811534E5930771
:100B000008F0A6C0811542E5940750F4C11581E5AF
:100B1000D80708F471C0DC2FCC27C16FD06A50C051
:100B2000982F969596959E0123703327C115D3452E
:100B300008F07FC0C1E0D0E002C0CC0FDD1F2A95D5
:100B4000E2F720E2929FC0011124C82BD92B6FC07D
:100B5000C11589E5D807A8F4C11598E5D90708F0AB
:100B60007CC0C11526E5D20708F09ECF8C2F0E94CD
:100B7000D706C82FD0E0DC2FCC27CC27DF71D0627E
:100B80001FC0C1153AE5D30708F46CC0CE019056DA
:100B90008115904208F088CF8D2F8F710E94D70663
:100BA00090E0982F882788279F719C012C2BE901C2
:100BB000E6CFC55AD0E0C35BDE4FC881D0E0D06439
:100BC000CE01DF91CF910895C85AD0E0CC0FDD1F40
:100BD000C15EDE4F0990D881C02DD464F1CFCE0123
:100BE0009927D3FF03C0EC01D86CEACFEC01D06C9D
:100BF000E7CFDF70D06AE4CFCE01E4E09695879529
:100C0000EA95E1F783702C2F26952695237090E2C4
:100C1000299F90011124382B8C2F8370C1E0D0E0E4
:100C200002C0CC0FDD1F8A95E2F7C22BD32BDC6804
:100C3000C7CFC1E0D0E002C0CC0FDD1F2A95E2F79C
:100C400030E2939FC0011124C82BD92BDA68B8CFAA
:100C5000D82FCC27C46FD06AB3CFDC2FCC27C06F7E
:100C6000D06AAECF8C2F8F700E94D70634E0D69515
:100C7000C7953A95E1F7CF709C2FEC01D069A0CFD2
:100C800082389105B1F1B0F48133910509F475C052
:100C900048F48932910509F469C08A32910509F452
:100CA00073C008958533910509F459C089339105BE
:100CB00001F10895833E9105A9F138F4803E910534
:100CC000F9F0823E910549F10895863E9105A9F11A
:100CD000873E9105C9F1843E910519F520918E0258
:100CE00021FF1FC080918D0284FD14C087EE90E02B
:100CF000089520918D022370A1F080EE90E0089578
:100D000020918D0220FD47C030918E0230FF09C036
:100D100024FF44C090E080E004C020918D0222FDB9
:100D2000F7CF089520918D0222FD3BC030918E02B5
:100D300030FDE3CF24FFF5CFEDCF20918D0223FFCF
:100D4000F0CF24FDE7CFD2CF20918D0223FD2CC020
:100D500030918E0231FFEECF84EE90E00895209125
:100D60008D0225FFDECF89E290E0089520918D026B
:100D700025FFD7CF85E390E0089520918D0226FFCF
:100D8000D0CF8AE290E0089520918D0226FFC9CF4E
:100D900081E390E0089589E390E0089583EE90E088
:100DA000089582EE90E0089586EE90E00895909187
:100DB0008D0292FF06C0282F28712830F9F4877F12
:100DC000846093FF06C0282F28712831F1F4877EB4
:100DD000846120918E0220FF06C0382F3871383090
:100DE000D9F4877F816021FF06C0282F2871283120
:100DF000D1F4877E816194FD877E0895282F247128
:100E00002430F9F68B7F8860DCCF282F24712431C1
:100E100001F78B7E8861DDCF382F3171313019F7C2
:100E20008E7F8860E0CF282F2171213121F78E7EBF
:100E30008861E1CF08950C941A0708950C941D075A
:100E4000E82FF0E0EE0FFF1FEF57FD4F80819181FB
:100E50000895089580EA8A95F1F7089500C00895ED
:100E60000C942A07F894E82FE295EF70F0E031A196
:100E7000282F2F7081E090E001C0880F2A95EAF7B3
:100E8000982F9095932391A392A1892B82A3789474
:100E90000895CF93DF9386EC0E94320785EF0E947E
:100EA000320780EF0E94320781EF0E943207C0E5CF
:100EB000D1E089910E94320781E0CC35D807C9F78B
:100EC00010927A021092790210928202109281029C
:100ED00010927C0210927B02109284021092830284
:100EE00010927E0210927D0210928602109285026C
:100EF0001092800210927F02109288021092870254
:100F000084E00E940B08DF91CF910C94DA03AF923A
:100F1000BF92CF92DF92EF92FF920F931F93CF93E6
:100F2000DF930CE511E0C9E7D2E0C12CD12CEE240F
:100F3000E394F12CF80181918F01F894E82FE29568
:100F4000EF70F0E021A18F70A70102C0440F551F80
:100F50008A95E2F7CA01922F982B91A392A18095CE
:100F6000892382A378940E942E07E0E5F1E030E027
:100F700020E0B12CA12C4191A42FA295AF70B0E03C
:100F800090968C9190E04F7002C0959587954A9508
:100F9000E2F780FD3BC0C701022E02C0880F991FF7
:100FA0000A94E2F7A82AB92A2F5F3F4F2C30310567
:100FB00011F7F801319780810E94320753E0C51282
:100FC0000E94300788819981A816B90611F1B9826B
:100FD000A88281E0D82AC394229684E0C812AACFBE
:100FE0002D2D44E061E872E089E792E00E940C0850
:100FF0000E94E4038D2DDF91CF911F910F91FF90FF
:10100000EF90DF90CF90BF90AF90089590E080E098
:10101000C9CF80E0DFCF0895FF920F931F93CF9346
:10102000DF93F82E092F162FD72FC42F222349F034
:1010300081E08093A4010E948A1E9093A301809373
:10104000A2018091A4018823A1F08091A201909136
:10105000A3010E94A21E069760F0EF2DF02FA12F92
:10106000BD2F90E080E0D0E08C179D0744F01092F7
:10107000A401DF91CF911F910F91FF9008952191CD
:1010800031912D933D930196EFCF8091AB0180FF7D
:1010900012C06091050185E0689FB001112475952B
:1010A00067957595679560387105A8F561157105A7
:1010B000A1F1862F089581FF09C06091050185E0A7
:1010C000689FB001112475956795EDCF609105017A
:1010D00082FD0AC08091AA018823D1F09091040179
:1010E00060910501891728F085E0689FB0011124FF
:1010F000DACF869FB001112485E0869F9001879FFB
:10110000300D1124692F70E0C9010E94AD26CBCFAC
:1011100065E070E0CECF8FE7089581E0089580917B
:10112000AB0180FF0CC06091010170E0759567957F
:10113000759567956115710549F1862F089581FFB1
:1011400006C06091010170E075956795F3CF6091DD
:10115000010182FD0BC09091A9019923A1F060913A
:10116000000180910101961738F0682F70E0603817
:10117000710500F38FE70895899FC001112470E085
:101180000E94AD26F4CF61E070E0D7CF81E00895F2
:10119000803F31F40E94450881958093AF01089506
:1011A000813F19F40E944508F8CF823F31F40E9434
:1011B000450881958093AE010895833F19F40E94FC
:1011C0004508F8CF893F29F40E948F088093B00129
:1011D00008958A3F21F40E948F088195F7CF8B3FB5
:1011E00031F40E948F0881958093B10108958C3F5E
:1011F00019F40E948F08F8CF843F31F48091AD013B
:1012000081608093AD010895853F21F48091AD0107
:101210008260F7CF863F21F48091AD018460F1CFE9
:10122000873F21F48091AD018860EBCF883F21F4A6
:101230008091AD018061E5CF8D3F31F48091AB01AC
:1012400081608093AB0108958E3F21F48091AB01C2
:101250008260F7CF8F3FB9F78091AB018460F1CF07
:101260009091AE01803F59F48091AF0187FF0DC08E
:101270001092AF0191110BC01092AA0108C0813FDA
:1012800081F48091AF0118169CF3992381F080912D
:10129000B0019091B101892B09F064C01092A901AD
:1012A0000895823F49F497FFF0CF1092AE018091EC
:1012B000AF018111ECCFE0CF833F19F41916ACF3E5
:1012C000E4CF2091B001893F29F41216F4F6109270
:1012D000B001DBCF8A3F19F427FFD7CFF8CF209199
:1012E000B1018B3F29F427FFD0CF1092B101CDCFB0
:1012F0008C3F19F41216CCF3C8CF843F31F480919F
:10130000AD018E7F8093AD01C0CF853F21F48091E8
:10131000AD018D7FF7CF863F21F48091AD018B7FAA
:10132000F1CF873F21F48091AD01877FEBCF883FDC
:1013300021F48091AD018F7EE5CF8D3F31F4809116
:10134000AB018E7F8093AB01A0CF8E3F21F48091C3
:10135000AB018D7FF7CF8F3F09F097CF8091AB0125
:101360008B7FF0CF08950E948A1E9C019091AE0160
:101370008091AF01982B21F03093A8012093A70111
:101380009091B0018091B101982B21F03093A6018A
:101390002093A5018CEA91E00C948611EF92FF92C4
:1013A0000F931F93CF93DF9300D000D000D0CDB721
:1013B000DEB786E0ECEAF1E0DE01119601900D92D5
:1013C0008A95E1F7E090AE01F090AF010091B00195
:1013D0001091B1011092AE011092AF011092B001C4
:1013E0001092B1018E2D8F2991F08091A7019091DB
:1013F000A8010E94A21EAC019091AA01992309F4B0
:101400003FC0809106018417150608F447C0802F5D
:10141000812B91F08091A5019091A6010E94A21EBE
:10142000AC019091A901992309F477C08091020140
:101430008417150608F47FC08091AE019091AF012A
:10144000892B9091B001892B9091B101892B11F0DA
:101450000E94B30986E0FE013196ACEAB1E001904A
:101460000D928A95E1F726960FB6F894DEBF0FBE6F
:10147000CDBFDF91CF911F910F91FF90EF90089515
:10148000209107018AE0289F900111242417350735
:1014900008F0BDCF9F5F9093AA0102C09F3FD1F794
:1014A000EE2059F00E9445089FEF1E140CF491E0C5
:1014B000899F802D11248093AE01FF2059F00E9456
:1014C00045089FEF1F140CF491E0899F802D112493
:1014D0008093AF013091AE01332309F498CF20916E
:1014E000AF01222309F493CF45EB3403C00111244B
:1014F000992359F09093AE0145EB240390011124F8
:10150000332339F03093AF0182CF81E08093AE0175
:10151000F3CF81E08093AF017ACF209103018AE07D
:10152000289F900111242417350708F085CF9F5F6D
:101530009093A90102C09F3FD1F7002359F00E9468
:101540008F089FEF10160CF491E0899F802D1124D5
:101550008093B001112359F00E948F089FEF11165C
:101560000CF491E0899F802D11248093B10130917A
:10157000B001332309F460CF2091B101222309F493
:101580005BCF45EB3403C0011124992359F09093AC
:10159000B00145EB240390011124332339F030933B
:1015A000B1014ACF81E08093B001F3CF81E0809315
:1015B000B10142CF86E0ECEAF1E0DF011D928A95AD
:1015C000E9F71092AA011092A9011092AB010895B7
:1015D00082E290E00E94F226833389F483E290E075
:1015E0000E94F226893959F484E290E00E94F226A2
:1015F00091E0843209F090E0892F8170089580E0B5
:10160000FCCFCF93C82F6FEF811163E382E290E0AC
:101610000E9400276FEFC11169E983E290E00E9408
:1016200000276FEFC11164E284E290E0CF910C9447
:10163000002780E00E94010B0C949A1C089585E21B
:1016400090E00E94F226682F70E090E080E008951C
:1016500085E290E00C9400270E941E0B0E94E80A8D
:1016600081110CC060E070E0CB010E94280B0E9449
:101670009C0D0E94AA0E81E00C94010B0895CF935B
:10168000FB01C281CC2309F19C0122513F4520314D
:10169000310520F582510E94BA0EC0E08C2FCF9107
:1016A000089581E00E94641A43E062E081E00E94B4
:1016B000C803F3CF81E00E94851A43E062E081E035
:1016C0000E94C803EBCF82E0F6CF8031FFE59F0791
:1016D00089F381319F45B9F3C1E0E0CF8031EFE577
:1016E0009E07F9F281319F45C9F682E0DBCF2FEFEB
:1016F000FC0120830895EF92FF920F931F93CF93E5
:10170000DF93EC01062F88812091B4013091B5015F
:10171000232B79F08E3F09F057C08981833020F068
:101720008550833008F050C0602FCE010E94820C9B
:101730004BC08C3009F4A1C0D0F4843009F484C0CB
:1017400060F4823009F44AC008F071C08130C9F1F8
:10175000602FCE010E94770B37C0863009F48AC013
:1017600008F47DC08A30A0F78FEF88832DC08031C8
:1017700009F4A0C0D8F48E3009F48BC008F481C0FD
:101780008091080190910901892BF1F06B8170E043
:101790006D317105C8F489819A81AE014C5F5F4F4C
:1017A0009827892798270E947F0E0EC0823109F45E
:1017B00087C008F482C0833109F493C08E3F41F69C
:1017C000B3CF198289E08A83602FCE01DF91CF9158
:1017D0001F910F91FF90EF900C94D41F898182305C
:1017E00071F0833079F0813009F0B2CF0E94961EFB
:1017F0000E94C7266A837B838C839D83E5CF0E94EA
:101800001F0BF6CF8091080190910901892BE1F21D
:101810007E0110E0812F0E942007F70192838383CD
:101820001F5FF2E0EF0EF11C1430A1F7CDCF8981DC
:10183000823009F08DCF6A817B818C819D810E94ED
:10184000C7260E94280BC0CF4B816A8189810E94E4
:10185000520D9827892798279D838C83B5CF2C819B
:101860003D813227232732274B816A8189810E945B
:10187000740DAACF0E949C0DA7CF0E94530E89839E
:10188000A3CF0E94550E9827892798279A8389838A
:101890009BCF6B8170E06D31710508F095CF898128
:1018A0009A81AE014C5F5F4F9827892798270E9445
:1018B000580E8ACF0E94AA0E87CF0E94400DDFCF1C
:1018C0006B8170E06D31710508F07ECF89819A815E
:1018D000AE014C5F5F4F9827892798270E94E60D3D
:1018E00073CF6B8170E06D31710508F06DCF898128
:1018F0009A81AE014C5F5F4F9827892798270E94F5
:101900000C0E62CF0F931F93CF93DF93CDB7DEB74B
:1019100028970FB6F894DEBF0FBECDBF8C016032A2
:1019200051F4FC018181823009F445C078F48823A8
:1019300021F18130D9F128960FB6F894DEBF0FBEA1
:10194000CDBFDF91CF911F910F910895863009F49B
:1019500075C0873009F48AC0853069F740E250E0ED
:101960006FEF70E0C8010E94EB2680910801F8013A
:1019700080838091B4018183DECF88E0E7E1F1E0EC
:10198000DE01119601900D928A95E1F783E0F8014E
:10199000808311821282138288E0FE013196D80181
:1019A000149601900D928A95E1F7C5CF88E6808361
:1019B00012821382C0CF8381682F70E0762F662752
:1019C0008281860F972F911D092E000CAA0BBB0B4D
:1019D00025E0880F991FAA1FBB1F2A95D1F7AC01DC
:1019E000BD01405E5F4F6F4F7F4F481759076A0731
:1019F0007B0708F4A0CF8836F1E09F07A105B10569
:101A000008F099CF493621E052076105710520F0B1
:101A100048E651E060E070E0481B590BBC01645897
:101A20007D4FC80128960FB6F894DEBF0FBECDBF1C
:101A3000DF91CF911F910F910C94E22681E090E00D
:101A40009093B5018093B40182E390E09093B30149
:101A50008093B20128960FB6F894DEBF0FBECDBFBB
:101A6000DF91CF911F910F910C948A1E80910801F4
:101A700080838091B40181838091B20182835BCFA6
:101A800084E0089550E0440F551F98E1699F400D90
:101A9000511D112490E6899F400D511D1124CA014A
:101AA000869608950F931F93CF93DF938430C8F4E5
:101AB0006430B8F44C30A8F40E94420D8C010E94AE
:101AC000F226C82FD0E0DC2FCC27C80101960E9457
:101AD000F2269E01282BC901DF91CF911F910F9112
:101AE000089590E080E0F8CF0F931F93CF93DF939A
:101AF000E9018430E0F46430D0F44C30C0F42115B6
:101B00003C4531F42091080130910901232B79F0F3
:101B10000E94420D8C016D2F0E9400276C2FC8017E
:101B20000196DF91CF911F910F910C940027DF91C7
:101B3000CF911F910F9108958F929F92AF92BF9274
:101B4000CF92DF92EF92FF921F93CF93DF9380901B
:101B500008019090090181E090E090930901809341
:101B600008018CEAC82E80E0D82ED0E07601C0E0D3
:101B700014C0F50125913491412F6C2F8D2F0E94B7
:101B8000740D82E0A80EB11C1F5F1C3091F788E134
:101B9000E80EF11CCF5FC43019F0570110E0E9CF17
:101BA000DF5F80E6C80ED11CD43001F790920901A6
:101BB00080920801DF91CF911F91FF90EF90DF900D
:101BC000CF90BF90AF909F908F900895EF92FF922B
:101BD0000F931F93CF93DF93EC018A017C01E60EF4
:101BE000F71ECE018696CE15DF0539F4DF91CF9131
:101BF0001F910F91FF90EF900895C03821E0D20718
:101C000040F40E94F226F80180830F5F1F4F219657
:101C1000E8CFF8011082F9CFCF92DF92EF92FF92D6
:101C20000F931F93CF93DF938C016A01803891400B
:101C300080F480E891E0801B910B8617970748F0AD
:101C40007801E60EF71EE801CE018696CE15DF0577
:101C500049F4DF91CF911F910F91FF90EF90DF90AA
:101C6000CF900895C03821E0D20740F4FE01E01B78
:101C7000F10BEC0DFD1D60810E9400272196E4CF41
:101C8000462F2091B4013091B501232B49F48430C3
:101C900038F4743028F46C3018F4672F0C94520D1B
:101CA00090E080E0089580E108958AE592E008954B
:101CB000EF92FF920F931F93CF93DF93EC018A0172
:101CC0007C01E60EF71ECE018A559E4FCE15DF052C
:101CD00039F4DF91CF911F910F91FF90EF9008950C
:101CE000CA3522E0D20740F40E94F226F801808330
:101CF0000F5F1F4F2196E7CFF8011082F9CFCF92E7
:101D0000DF92EF92FF920F931F93CF93DF937C01AB
:101D10006A018C01060F171FEC01CE018A559E4FF8
:101D2000C017D10749F4DF91CF911F910F91FF9018
:101D3000EF90DF90CF900895CA3522E0D20740F4AB
:101D4000FE01EE19FF09EC0DFD1D60810E940027C8
:101D50002196E3CFCF93DF93C6EAD1E060E0CE01D6
:101D60000E9400272196C11584E0D807B9F7DF91BA
:101D7000CF910895BF92CF92DF92EF92FF920F938F
:101D80001F93CF93DF9300D000D0CDB7DEB7F82EEE
:101D90002FE0281740F08FEF93E00E94F22606EA2A
:101DA00011E08823D1F00F900F900F900F90DF91EA
:101DB000CF911F910F91FF90EF90DF90CF90BF9048
:101DC0000895011544E0140771F3C8010E94F2263A
:101DD000811101C0FA940F5F1F4FF110F2CF1982E9
:101DE0001A821B821C82BB24BA9478015FEFE51A29
:101DF000F50AC8010E94F22689831A82882399F283
:101E0000813009F047C0680182E0C80ED11CC701CB
:101E10000E94F226E82E8A83882329F2C6010E94B6
:101E2000F226F82E8FEF8E0D833068F46801E3E020
:101E3000CE0ED11CFB82FF2021F0CE0101960E9424
:101E40000D058601D2CFF4E0EF12FBCF680124E04C
:101E5000C20ED11CC80103960E94F226FF2009F48D
:101E6000A2CF882309F49FCF8150990BB89E90018F
:101E7000B99E300D11244F2D4150550BCA01820FD0
:101E8000931F0197F0F2EFE9FFE03197F1F700C0FF
:101E90000000F7CFCE0101960E940D056701D1CF5A
:101EA0000F931F93CF93DF93C42FD22FFC01828116
:101EB0008823C9F04093B8010E948A1E9093B7010D
:101EC0008093B60180E28C0F883008F050C0C77054
:101ED00081E001C0880FCA95EAF7DF91CF911F9189
:101EE0000F910C94EF131091B801141335C0809129
:101EF000B6019091B7010E94A21E883C910560F541
:101F0000C0E2CD0F1D17B9F080E2810F883040F498
:101F1000177081E001C0880F1A95EAF70E94F61346
:101F2000C83048F481E09D2F977001C0880F9A95C2
:101F3000EAF70E94EF13802F0E94E713C830B8F42D
:101F4000D77081E001C0880FDA95EAF7DF91CF9171
:101F50001F910F910C94F61380E28C0F883038F4A7
:101F6000C77081E001C0880FCA95EAF7EFCFDF9113
:101F7000CF911F910F9108950F939C01CB01233FA7
:101F80004CE5340759F1A8F4283DFCE53F0701F181
:101F9000293D4CE53407D1F1273D3C4591F406E25B
:101FA00021EE41EE67ED7CE50E94500F80E00F913D
:101FB0000895253FFCE53F07E9F0B0F0263F3C459A
:101FC000F9F0FC018281882339F11092B801EFCF3A
:101FD00007E225EE45EE68ED7CE5E6CF06E221EE70
:101FE00040EE63EF7CE5E0CF07E225EE44EE64EFE0
:101FF0007CE5DACF06E221EE42EE65EF7CE5D4CF58
:1020000007E225EE46EE66EF7CE5CECF08E221E062
:1020100045EE69ED7CE5C8CF81E0C9CFCF93DF9372
:10202000EC01FB018281882309F419C1C230FCE56F
:10203000DF07C0F1C6319CE5D90730F09E012A5F69
:102040003C452930310570F50E94B31C90938E02F7
:1020500080938D02C031ECE5DE0709F4CFC008F0B3
:102060005BC0C8308CE5D80709F4B6C088F5C43029
:10207000ECE5DE0709F4A8C0C0F4C2308CE5D8074F
:1020800009F49CC080918D028260C330DC4509F464
:1020900098C080918D0290918E020E94C11C0E9476
:1020A0006A1680E0DF91CF91089580918D02806162
:1020B000C630ECE5DE0709F484C080918D028860AB
:1020C000C730DC4508F47DC080918D02806279C004
:1020D000CC308CE5D80709F489C070F480918D026A
:1020E0008C60CA30ECE5DE0709F46BC008F478C0F8
:1020F00080918D028E7F65C0CE308CE5D80709F4C3
:1021000079C080918D028B7FCF30DC4508F459C0B7
:1021100080918D028F7E55C0CB3FECE5DE0709F440
:1021200057C030F5C3318CE5D80709F46FC078F497
:10213000C131ECE5DE0709F465C0C231DC4509F0C8
:10214000A8CF0E946A1680918D028F773AC0C53160
:102150008CE5D80709F462C008F476C080918E023D
:102160008160CA3FDC4509F094CF80938E0291CF05
:10217000CF3FFCE5DF0709F44DC088F480918E0263
:102180008D7FCD3F9CE5D90781F380918E028E7FB4
:10219000CE3FDC4550F380918E028360E6CFC130A4
:1021A000FDE5DF0709F459C008F444C080E0C230FF
:1021B000DD4509F06ECF0E94461D6BCF80918D02E8
:1021C000816080938D0265CF80918D028460F9CF0C
:1021D00080918E028260C9CF80918D028064F1CFA0
:1021E0000E946A1680918D028068EBCF80918D02EB
:1021F0008D7FE7CF80918D02877FE3CF80918D0225
:102200008F7DDFCF80918D028F7BDBCF80918D0220
:10221000837FD7CF80918E028C7FA7CF80918D0254
:1022200082FB992790F921E0922790FB82F990FB9D
:1022300083F9C7CF80918E02982F909591708E7FF1
:10224000892B90FB81F991CF0E946A1690918D02A3
:10225000892F97FB87F98058B4CF81E0ACCF81E01C
:1022600021CFCF93DF93EB0186319C4511F50E947E
:10227000E91B9A81992399F08A7A91E009F490E018
:102280009093B901811109C089E20E94C41B0E9488
:10229000351C80E0DF91CF91089585E3F6CF8091E2
:1022A000B901811104C089E20E94CB1BF0CF85E304
:1022B000FBCF81E0EFCF9093BF018093BE010895E3
:1022C000E091BE01F091BF01309721F00190F081C3
:1022D000E02D099480E00895E091BE01F091BF01E6
:1022E000309799F020911601222359F020918D0208
:1022F00027FF07C0DC012C9111962C93119725E044
:102300002C930280F381E02D09940895E091BE01A1
:10231000F091BF01309739F022E0DC012C9304806A
:10232000F581E02D099408952091BC013091BD0103
:102330002817390771F09093BD018093BC01E0919B
:10234000BE01F091BF01309721F00680F781E02DAA
:10235000099408952091BA013091BB0128173907DB
:1023600071F09093BB018093BA01E091BE01F091AE
:10237000BF01309721F00084F185E02D0994089584
:102380000E94961E6093CD017093CE018093CF0181
:102390009093D0016093C9017093CA018093CB01DF
:1023A0009093CC01089585B7806885BF85B7806814
:1023B00085BF0895089508950C94DA1108950C943A
:1023C000DE110E94D31188E99CE10E94F91E0E944F
:1023D000DB110C94DC1181E008950C94EB1108954D
:1023E00008950E94811E0E9449070E942C0B0E94A2
:1023F000141F0C94DF118F929F92AF92BF92CF92D5
:10240000DF92EF92FF920F931F93CF93DF93CDB79D
:10241000DEB72A970FB6F894DEBF0FBECDBF0E947D
:10242000EF110E94F0110E94870781110E94C011D4
:1024300051EC852E51E0952E10E000E0A02E802F6B
:102440000E9420076C01F401E190F1904F01E81621
:10245000F90609F45CC08091550281FD0E942907AC
:10246000C7018C259D25B12CEE24E394F12C9C0111
:102470002E213F21232B09F444C00E94ED11882313
:10248000A9F0BE82AF82CE20DF2081E0CD2809F402
:1024900080E088870E948A1E8160782F9A878987CA
:1024A0004E815F8168858A850E94B112000F111FDD
:1024B000F801EF53FE4F80819181E826F926F182E1
:1024C000E0820E94CE090E9460119091C00189179C
:1024D000A9F10E9460118093C0012A960FB6F8946A
:1024E000DEBF0FBECDBFDF91CF911F910F91FF9047
:1024F000EF90DF90CF90BF90AF909F908F900C9413
:102500001705B394EE0CFF1CFCE0BF12B0CF0F5FB9
:102510001F4F0430110509F091CF8FEF89838A8313
:102520001B820E948A1E8160782F9D838C83498143
:102530005A816B818D810E94B112C3CF2A960FB64A
:10254000F894DEBF0FBECDBFDF91CF911F910F91E9
:10255000FF90EF90DF90CF90BF90AF909F908F90C3
:102560000895DF92EF92FF920F931F93CF93DF9323
:10257000CDB7DEB72B970FB6F894DEBF0FBECDBF39
:102580007A878B87F42E052F162FE72ED82E611110
:102590000E94091C1E821D827E2DEC82DD824F2D41
:1025A000502F612F8D2D9E812B960FB6F894DEBF94
:1025B0000FBECDBFDF91CF911F910F91FF90EF9094
:1025C000DF900C94E018FC01808191810C94961BA3
:1025D000CF93C82F882309F48BC08238C1F40E949E
:1025E000601181FD85C089E30E94C41B0E94351CD7
:1025F0002FEF81EE94E0215080409040E1F700C041
:10260000000089E30E94CB1BCF910C94351C8338CA
:10261000A1F40E94601180FD6BC083E50E94C41B81
:102620000E94351C2FEF81EE94E0215080409040B5
:10263000E1F700C0000083E5E5CF8438A1F40E94F3
:10264000601182FD55C087E40E94C41B0E94351CA6
:102650002FEF81EE94E0215080409040E1F700C0E0
:10266000000087E4CFCF8CEF8C0F813A90F46C2F71
:1026700080910A0190910B010E945F1D882329F02F
:102680008C2F0E94CB1B0E94351C8C2F0E94C41BD8
:10269000BBCF80E28C0F883048F4C77081E001C066
:1026A000880FCA95EAF70E94EC1BAECFEBE5EC0F62
:1026B000E33040F4F0E0E257FE4F808190E0CF91AC
:1026C0000C949411E8E5EC0FE73150F4F0E0EE0FD4
:1026D000FF1FE05AFE4F80819181CF910C94AA1187
:1026E000C03F30F08C2F0E94C808CF910C94B309E2
:1026F000CF910895882309F452C0823871F40E9462
:10270000601181FF4CC089E30E94C41B0E94351CEC
:1027100089E30E94CB1B0C94351C833859F40E942A
:10272000601180FF3CC083E50E94C41B0E94351CE1
:1027300083E5EFCF843859F40E94601182FF2FC0E7
:1027400087E40E94C41B0E94351C87E4E2CF9CEF03
:10275000980F913AF0F290E2980F983050F4877009
:1027600091E001C0990F8A95EAF7892F0E94F21B28
:10277000D2CF9BE5980F933020F490E080E00C944A
:10278000941198E5980F973120F490E080E00C9434
:10279000AA11803F20F00E9430090C94B3090895DB
:1027A0001F93CF93DF93182FEB010E94E81220971D
:1027B00031F4812FDF91CF911F910C947A138FE91F
:1027C0009FE00197F1F700C000002197F0CF70E083
:1027D00060E0893311F460E570E00C94D013882335
:1027E00021F00E94EC1B0C94351C0895882321F0E5
:1027F0000E94F21B0C94351C0895BF92CF92DF9279
:10280000EF92FF920F931F93CF93DF936C01D62F1C
:10281000C72FFC011281058102950F700E94E21BF7
:10282000E82E8823A1F0E12E112389F08C2F807FE0
:10283000803429F080E28D0FE12C883040F082E076
:102840000E94801C0E94E21B91E0E82EE926BC2E2B
:10285000B2949FE0B922EB2DF0E0EA5CF84D0C94C5
:10286000C1260C2F0F70C07F11F00295007F11233D
:10287000A9F0002359F080E28D0F883010F0D111BB
:1028800009C0802F0E94EC1B0E94351C8D2F0E94D6
:10289000E81214C0802F0E94FC1BF6CF8D2F0E94DF
:1028A0007A13002359F080E28D0F883010F0D11197
:1028B0002CC0802F0E94F21B0E94351C2B2D28500B
:1028C000330B2430310520F40E9460110E9417055B
:1028D000EE2009F4A0C10E94DE1B80FD9CC1F60120
:1028E00012820E94D81B0E94641AC6010E942C16F4
:1028F0000E94D81BDF91CF911F910F91FF90EF9015
:10290000DF90CF90BF900C94851A802F0E94021CFC
:10291000D3CFFC2FFF70FF2EC07FC03219F0F2948E
:1029200080EFF822DD2369F0D13049F1112391F1D4
:10293000002351F1F601858180FFA8CF8F70858338
:1029400023C0112381F0011106C00E941C1C8F2995
:102950000E94EF13B3CF0130C1F70E941C1C8F29D6
:102960000E94221CABCF011106C00E942B1C8F2D90
:102970000E94F613A3CF013009F4A0CFF6CF1123A4
:1029800029F0063008F09ACF8F2DE2CF053008F0FD
:1029900095CFEDCF002359F3D93349F4FFEF27EE5C
:1029A00033E0F15020403040E1F700C000008D2FAF
:1029B0000E947A1383CF8C2F86958695837069F059
:1029C000813009F07BCF8D2F9C2F9370111102C0A5
:1029D00090E080E00E94AA1171CF8D2F9C2F937000
:1029E000111102C090E080E00E94941167CF8D2FFA
:1029F000112339F00E94C8080E94B3090E94B3094C
:102A00005DCF0E943009FACF8C2F837009F041C04E
:102A1000111154CF4D2F429546954770440F440FE6
:102A20000D2F0F7010E030E020E0042E04C0000FE6
:102A3000111F221F331F0A94D2F760E070E0CB0110
:102A4000D4FF0FC06FE070E080E090E004C0660F3C
:102A5000771F881F991F4A95D2F7609570958095CA
:102A60009095C695C695C370602B712B822B932BC6
:102A7000C23049F058F4C13019F00E94161A1ECF26
:102A80000E94041A1BCF0E94281A18CF0E94021A13
:102A900015CF8695112311F08C2F8170882309F4AE
:102AA0000DCF4D2F429546954770440F440F0D2F83
:102AB0000F7010E030E020E0042E04C0000F111F62
:102AC000221F331F0A94D2F760E070E0CB01D4FFDD
:102AD0000FC06FE070E080E090E004C0660F771FE9
:102AE000881F991F4A95D2F76095709580959095AB
:102AF000C695C695C370602B712B822B932BC23069
:102B000049F058F4C13019F00E94DB1AD7CE0E9468
:102B1000C91AD4CE0E94ED1AD1CE0E943E1ACECE52
:102B2000CF70112329F08C2F0E94641A8D2F10CFA3
:102B30008D2F0E94F6138C2F0E94851ABFCED23F94
:102B400089F160F4D03FC9F0D13F29F1112309F494
:102B500042C001119BCE8C2F8F7121C0D33F39F120
:102B6000D43FA1F7112369F1CF718C2F0E94641A11
:102B700063E08C2F0E946B1CA1CE112341F0053025
:102B800008F09CCE8C2F8F710E94A81A97CE063029
:102B900008F094CEF7CF8C2F8F71112369F20E9429
:102BA000641A8CCE8C2F8F711123C9F3C5CF1123DA
:102BB00029F08C2F8F710E944F1A80CE0E944A1AE2
:102BC0007DCE81E00E94801C023008F477CE82E046
:102BD0000E94801C73CE002359F0D93309F0E7CE50
:102BE0008FEF97EEE3E081509040E040E1F7DDCEDB
:102BF0008C2F8F71A1CF4C2F4F706D2FC6010E946B
:102C00001F050E947A195ACE4C2F4F706D2FC601A6
:102C10000E94220553CEDF91CF911F910F91FF901B
:102C2000EF90DF90CF90BF9008950F931F93CF93B5
:102C3000DF93EC01688179818A810E94A01B8C015D
:102C40000E94FF1A0E94011AB801CE01DF91CF91B4
:102C50001F910F910C94FD13CF93DF93EC018B81A7
:102C60009C81892B29F08881998189238F3F59F490
:102C7000DF91CF910895CE010E941516CE01DF910C
:102C8000CF910C946903CE010E9434048111F3CFDB
:102C90000E94E21B882361F38A81882349F382E042
:102CA000DF91CF910C94801C90E080E00E94941101
:102CB00090E080E00E94AA110E94091C0E94191C49
:102CC0000E94351C0E94DA0A0C94B3090E94D21BA0
:102CD0000C9454160E94F91B0C946616E92FE29589
:102CE000EF70E250EE3070F4F0E0EA5BF84D0C94D7
:102CF000C126803F19F020F4883E20F481E0089539
:102D0000843FE1F380E00895883EC0F3813FD1F72E
:102D1000F5CF93FB882780F908950E94961B0C94A9
:102D20006E16CF93DF9300D000D00F92CDB7DEB7F1
:102D30000F900F900F900F900F90DF91CF9108950B
:102D4000CF93DF9300D000D000D0CDB7DEB726966A
:102D50000FB6F894DEBF0FBECDBFDF91CF910895BF
:102D60001F93CF93DF93C091D20116E08091D301DE
:102D70008C1304C0DF91CF911F910895D0E01C9F68
:102D8000F0011D9FF00D1124EC52FE4F4081518146
:102D900062817381848195810E94A0162196C770FB
:102DA000E5CF4091040250910502609106027091B6
:102DB000070280910802909109020C94A0161F93BB
:102DC000CF93DF9380910902807FA9F4809106025E
:102DD000882389F08091D201C091D30160910402CF
:102DE00070910502A0910702B0910802D62FD72357
:102DF00016E0C81304C0DF91CF911F91089590E0B1
:102E0000109711F0DF3F19F401968770F2CF189FE9
:102E10009001199F300D1124F901EC52FE4F4181B0
:102E20004713F2CF40814613EFCF42814111ECCFDF
:102E3000438154814A1B5B0B483C510528F7809124
:102E400009028F70806180930902F901E752FE4FF9
:102E500080818F708061808384E092E00E942C16D4
:102E6000DF91CF911F910C94B016AF92BF92CF9289
:102E7000DF92EF92FF920F931F93CF93DF93CDB723
:102E8000DEB761970FB6F894DEBF0FBECDBF8C01E1
:102E900085E0F801DE011D9601900D928A95E1F71B
:102EA000F80140815181E28084E0C82E82E0D82E72
:102EB00060910702709108026115710509F461C102
:102EC0009091040220910502892F82238F3F09F4FB
:102ED00058C1A380B480F0900602F501E61BF70B01
:102EE000FF2009F4FCC080910902382F307FE83CB4
:102EF000F10508F0B2C0311179C0FE2C251323C0B2
:102F0000941321C0E1101FC08F708061809309026B
:102F10000E94D116C6010E942C1680910902F80168
:102F200085838F2D61960FB6F894DEBF0FBECDBF9F
:102F3000DF91CF911F910F91FF90EF90DF90CF9095
:102F4000BF90AF900895AB2829F0842F85238F3F41
:102F500009F033C180E0F82FF170DF2E80FF3CC014
:102F60008091D2012091D30136E0821315C04D87A4
:102F70005E878D859E850E94961B292F22952F7036
:102F80002230F0F0243018F59F70F1F0F8019581AF
:102F9000907FD1F4D12C1EC090E0389FF001399F72
:102FA000F00D1124EC52FE4F6181651306C0608163
:102FB000641303C062816E110FC001968770D5CF74
:102FC0009F7011F0882331F3805E883018F3C801B8
:102FD0000E942C16FD2CA5CFEE2009F4A2CF8091E3
:102FE0000902816080930902F12C9BCF251306C052
:102FF000941304C0F801EE2009F48DC04D875E875C
:103000008D859E850E948D16882319F1EE2009F189
:1030100080910902803270F0209104023091050203
:1030200038872F831986BB86AA868C87CE010796A0
:103030000E942C1686E0F801A4E0B2E001900D9207
:103040008A95E1F70E94DF160E94D116FF24F394BF
:1030500068CFC8010E942C16F9CF311113C07A2D08
:10306000B98AA88A6E2D89890E94911684E092E01F
:103070000E942C1686E0F60111928A95E9F70E94CB
:10308000D116B2CF25130FC094130DC0E1100BC0A1
:10309000F8018583C8010E942C1686E0F601119282
:1030A0008A95E9F73ECF4D875E878D859E850E9484
:1030B0008D16882371F2EE2061F280910902803230
:1030C00008F4B8CF20910402309105023A83298395
:1030D0001B82BD82AC828E83CE010196A9CFE83CD3
:1030E000F10508F041C0FE2CEE2009F4B2CF251303
:1030F0002AC0941328C08091090280FD1BC0982F1C
:10310000907FC1F0F8018583903F31F0982F907F38
:10311000905F8F70892B8583C8010E942C1686E0F2
:10312000F801A4E0B2E001900D928A95E1F70E94C7
:10313000D116F7CE86E0F801A4E0B2E001900D923E
:103140008A95E1F7EECE4D875E878D859E850E943C
:103150008D1681116FCF80910902816080930902E1
:10316000C8010E942C16DDCE7A2DB98AA88A6E2D50
:1031700089890E94911686E0F60111928A95E9F7F5
:10318000D6CFEE2009F465CF4D875E878D859E856D
:103190000E948D16F82E882309F45BCF86E0F80193
:1031A000A4E0B2E001900D928A95E1F784E092E00C
:1031B0000E94E3120E94DF16BACF81E08E25CBCEAB
:1031C0001F93CF93DF93CDB7DEB72C970FB6F8944C
:1031D000DEBF0FBECDBF4F83588769877A878B8745
:1031E0009C87CE0107960E943517882369F08A854F
:1031F0009B85892B39F04F815885842F85238F3FFC
:1032000009F071C016E05FC086E0FE013796DE016E
:10321000119601900D928A95E1F78A859B85892BFD
:1032200089F38F81988589238F3F61F32091D301A2
:1032300030E0C9010196877099274091D201481763
:10324000190671F40E946A161092D3011092D201ED
:1032500086E0E4E0F2E0DF011D928A95E9F7D2CF43
:1032600096E0929FD001939FB00D1124AC52BE4FB7
:10327000FE01319601900D929A95E1F78093D3016A
:103280000E94B016BFCF819FC00111248C529E4F67
:103290000E9435178823E9F0E091D2011E9FF001CA
:1032A0001124EC52FE4F40815181628173818481EF
:1032B00095810E94A0168091D20190E001968770BE
:1032C00099278093D2018091D2019091D3018913E3
:1032D000DACF2C960FB6F894DEBF0FBECDBFDF91CC
:1032E000CF911F91089569857A858B859C850E9471
:1032F000A01688CFEF92FF920F931F93CF93DF9387
:103300008C01892B81F0F12CEE24E394E8012196C5
:10331000F8018491843770F4843008F05FC0813004
:10332000B1F08230A1F1DF91CF911F910F91FF9009
:10333000EF900895853709F44CC008F43DC09CE730
:10334000980F903780F78F770E947A1349C00E5FED
:103350001F4FFE01849190E2980F983060F48770BF
:10336000FE2D01C0FF0F8A95EAF78F2F0E940C1CDB
:103370000E94351C02C00E94E8128F2D815030F24D
:10338000EFE9FFE03197F1F700C00000F7CF0E5FE3
:103390001F4FFE01849190E2980F983050F487708F
:1033A000FE2D01C0FF0F8A95EAF78F2F0E94121C95
:1033B000DFCF0E947A13E1CF0E5F1F4FFE01C49151
:1033C000C150D8F28FE99FE00197F1F700C00000EB
:1033D000F7CF0E5F1F4FFE01F490CFCF0E94E8128F
:1033E0008E01CBCF08950C94F2190E94F3196093CB
:1033F0002C0270932D0280932E0290932F020C9436
:10340000541608950C94F5190F931F9300912C02F4
:1034100010912D0220912E0230912F02602B712BE2
:10342000822B932B1F910F910C94F5190F931F93DF
:1034300000912C0210912D0220912E0230912F022A
:1034400060237123822393231F910F910C94F5190C
:103450000F931F9300912C0210912D0220912E02A8
:1034600030912F0260277127822793271F910F9198
:103470000C94F5190C94F2190C943A1A0E943C1A07
:10348000609328027093290280932A0290932B0262
:103490000C94541660E070E0CB010C943E1A0F932C
:1034A0001F9341E050E060E070E08A019B0104C09E
:1034B000000F111F221F331F8A95D2F7C901B801CF
:1034C0001F910F910C943E1A0F931F9341E050E00F
:1034D00060E070E004C0440F551F661F771F8A9597
:1034E000D2F78091280290912902A0912A02B091EE
:1034F0002B028A019B01082B192B2A2B3B2BC9017C
:10350000B8011F910F910C943E1A0F931F9341E045
:1035100050E060E070E004C0440F551F661F771F45
:103520008A95D2F7CB01BA016095709580959095F8
:10353000009128021091290220912A0230912B0239
:1035400060237123822393231F910F910C943E1AC1
:103550000F931F9341E050E060E070E004C0440F1F
:10356000551F661F771F8A95D2F780912802909188
:103570002902A0912A02B0912B028A019B010827FF
:1035800019272A273B27C901B8011F910F910C94D5
:103590003E1A0F931F930091280210912902209147
:1035A0002A0230912B02602B712B822B932B1F91BF
:1035B0000F910C943E1A0F931F93009128021091C3
:1035C000290220912A0230912B0260237123822349
:1035D00093231F910F910C943E1A0F931F93009108
:1035E00028021091290220912A0230912B02602793
:1035F0007127822793271F910F910C943E1A0895EB
:103600002CE0929F800D1124982F977041E001C00B
:10361000440F9A95EAF786958695869595E0899F59
:10362000F0011124E65FFD4F90E080E070E05191E1
:10363000DF0111979B01082E02C0369527950A9449
:10364000E2F7217021952527242325272C93019625
:103650008530910561F708952CE0929F800D11242B
:10366000982F977086958695869525E0829FF00124
:103670001124E65FFD4F50E040E080E0219130E012
:10368000092E02C0369527950A94E2F72170332758
:10369000042E01C0220F0A94EAF7822B4F5F5F4F7E
:1036A0004530510559F70895BF92CF92DF92EF92BE
:1036B000FF920F931F93CF93DF938C01C09028024A
:1036C000D0902902E0902A02F0902B0280912C02E7
:1036D00090912D02A0912E02B0912F02C82AD92AD2
:1036E000EA2AFB2ACFE1D0E0BC2ED701C6010C2E7E
:1036F00004C0B695A795979587950A94D2F780FD53
:103700000EC0219788F7B12C8B2DDF91CF911F919F
:103710000F91FF90EF90DF90CF90BF900895B80188
:103720008C2F0E942B05019761F3EECFCF93DF938F
:10373000EC010E94541BBE01DF91CF910C942B052C
:103740001F93CF93DF93EB019091D101992331F037
:10375000CB01DF91CF911F910C94961B882379F0B8
:10376000CB010E94541B182F682FCE010E94001B12
:10377000BE01812FDF91CF911F910C942B05CB01BE
:103780000E942C1B182FF4CF682F80910A01909172
:103790000B010C94DF1D682F80910A0190910B01A1
:1037A0000C94EA1D80910A0190910B010C94F51D77
:1037B0008091300285958595859508958091300298
:1037C0008770089590913002977081E009F480E04D
:1037D000089580915402089590915402892B80930A
:1037E0005402089580959091540298239093540226
:1037F000089510925402089590915302892B80935A
:103800005302089580959091530298239093530208
:10381000089510925302089590915202892B80933B
:1038200052020895809590915202982390935202EB
:1038300008951092520208958091310208950895DA
:103840000C941F1C90913102981721F08093310243
:103850000C94201C089580913102882329F0109245
:10386000310280E00C94201C0895E0910A01F0914F
:103870000B01809154028083E0910A01F0910B01C9
:10388000808190915302892B8083E0910A01F0910D
:103890000B01808190915202892B8083909131029B
:1038A000992381F0E0910A01F0910B018081892B2D
:1038B000808380910A0190910B010E944B1D811120
:1038C0000E942B1C80910A0190910B010C946C11A9
:1038D00008950C94681C98E0899F90011124622B34
:1038E000609330020E94641A80913002859585951C
:1038F00085950C94691C1092300280E00C94691C30
:10390000909130028095892380933002282F277070
:1039100071F4282F082E000C330B9217130639F080
:103920008595859585950E94851A0C947B1C089534
:1039300080E008956FEF7FEF90E080E00C941E2709
:1039400090E080E00E94FA2621E08B3E9E4F09F035
:1039500020E0822F089582E090E00C94F22683E02C
:1039600090E00C94F226CF9384E090E00E94F2263F
:10397000C82F81E290E00E94F226982F8C2FCF91E1
:103980000895CF93C92F682F84E090E00E9400270C
:103990006C2F81E290E0CF910C940027AB01BC0129
:1039A0008FE090E00C941227AB01BC0183E190E022
:1039B0000C94122760E070E0CB010C94D41C60E002
:1039C00070E0CB010E94CE1C0C94DA1C6BEE7EEFF3
:1039D00090E080E00E941E2760E082E090E00E947C
:1039E000002760E083E090E00E94002710922C0204
:1039F00010922D0210922E0210922F0260E084E0AD
:103A000090E00E94002760E081E290E00E940027A1
:103A100060E085E090E00E94002760E086E090E0B2
:103A20000E9400276FEF87E090E00E94002740E0AF
:103A300050E0BA0188E090E00E94122760E08DE03B
:103A400090E00E94002740E050E0BA0188E190E059
:103A50000E94122760E087E190E00E94002740E08A
:103A600050E0BA018CE190E00E94122760E080E211
:103A700090E00E94002740E050E0BA0188E190E029
:103A80000E9412270C94DF1C0C94E61C682F8EE019
:103A900090E00C940027FC01329680911601882357
:103AA00021F080918D029EE187FF96E080E09150A9
:103AB00008F4089521912223D1F38F5FF8CF662374
:103AC00001F1209116012223F1F020918D0227FFB0
:103AD0001AC0462F4695469546954E3190F467702C
:103AE00021E030E002C0220F331F6A95E2F7840F15
:103AF000911DFC01828190E02823392381E0232B52
:103B000069F480E00895FC01329608962191261709
:103B100021F0E817F907D1F7F4CF81E008959C016F
:103B2000FC0132969FEF80E04191461751F09F3F94
:103B300019F4411101C0982F8F5F8630A9F79F3F7C
:103B400009F40895290F311D97FD3A95F901628313
:103B50000895FC01329608962191261303C0DF01D7
:103B600011971C92E817F907B9F70895E62FE69523
:103B7000E695E695EE3168F4E80FF92FF11D6770D0
:103B800021E030E001C0220F6A95EAF78281822BA2
:103B900082830895E62FE695E695E695EE3170F47A
:103BA000E80FF92FF11D677021E030E001C0220F0E
:103BB0006A95EAF72095828128232283089520912F
:103BC0001601222329F020918D0227FD0C94B61DA9
:103BD0000C948F1D20911601222329F020918D0233
:103BE00027FD0C94CA1D0C94A91DFC0132968091EE
:103BF0001601882351F080918D0287FF06C08EE167
:103C0000DF011D928A95E9F7089586E0F9CF0895BE
:103C100008950C94081E80919302843049F10E940B
:103C2000091E80E00E9417051092560288E190E07C
:103C300020E40FB6F894A895809360000FBE2093FF
:103C4000600083B7817F846083BF83B7816083BF57
:103C50007894889583B78E7F83BF0FB6F894A89524
:103C600080916000886180936000109260000FBEB8
:103C700008950895CF930E94071E0E9487070E940F
:103C8000391EC0E08C2F0E942007892B31F4CF5FB2
:103C9000C430C1F780E0CF91089581E0FCCF089552
:103CA0000C944F1E0E946A160E9460110E94170514
:103CB0000C94501E1F921FB61F9211248F939F9336
:103CC000AF93BF9380915602811113C080918902F6
:103CD00090918A02A0918B02B0918C024196A11D15
:103CE000B11D8093890290938A02A0938B02B093B6
:103CF0008C02BF91AF919F918F911F901FBE1F901B
:103D0000189582E084BD93E095BD9AEF97BD8093AE
:103D10006E0008952FB7F8948091890290918A02DD
:103D2000A0918B02B0918C022FBF08952FB7F89409
:103D30006091890270918A0280918B0290918C022D
:103D40002FBF08959C014FB7F894809189029091FC
:103D50008A02A0918B02B0918C024FBF821B930B01
:103D6000089578941F921FB61F9211248F939F93EA
:103D7000AF93BF938091890290918A02A0918B02A8
:103D8000B0918C020196A11DB11D80938902909380
:103D90008A02A0938B02B0938C02BF91AF919F9146
:103DA0008F911F901FBE1F90189581E08093E000B7
:103DB00080E28093D8001092C9008FE19EE40197C1
:103DC000F1F700C0000087E090EBDC0180939C02DB
:103DD00090939D02A0939E02B0939F0288E19CE085
:103DE0000FB6F894A895809360000FBE9093600082
:103DF000FFCF9093A1018093A00108950C94190B1B
:103E00000E9487078FE39CE90197F1F700C000004B
:103E10000E94870780E00E94200780FF04C00E9464
:103E2000FE1E0C94D51E08950E94A01C811102C094
:103E30000E94441D0E94AB1C809355020E94B31C3B
:103E400090938E0280938D020E94AF1C682F70E0C9
:103E500090E080E00E94021A60912802709129028D
:103E600080912A0290912B020C943C1A8091770247
:103E70000895CF93DF9300D00F92CDB7DEB7909126
:103E80009302943011F589837B836A839093E900D0
:103E90008FEF9091E800815095FD06C095ED9A95C1
:103EA000F1F700008111F5CF8091E80085FF0DC08A
:103EB00050E040E063E070E0CE0101960E94CD2129
:103EC0008091E8008E778093E8000F900F900F901C
:103ED000DF91CF910895BC0184E00C94391FBC019F
:103EE00083E00C94391F9C0184E08093E9009FEFEC
:103EF0008091E800915085FD06C085ED8A95F1F727
:103F000000009111F5CF8091E80085FF0CC050E0D2
:103F100040E066E070E0C9010E94CD218091E80098
:103F20008E778093E8000895CF93DF93EC01809122
:103F300016018823B1F180918D0287FF32C060E2C3
:103F400084E08093E9008FEF9091E800815095FD27
:103F500006C095ED9A95F1F700008111F5CF80919B
:103F6000E80085FF1BC08091160170E050E040E042
:103F7000811104C050E040E068E070E0CE010E9492
:103F8000CD218091E8008E778093E80080E2FE01E9
:103F9000A7E5B2E001900D928A95E1F7DF91CF910C
:103FA000089568E081E0CDCFCF93FC01603221F528
:103FB00080919302843001F5C091E900CF70209187
:103FC000EC00922F917020FD90E8C92B82E0809345
:103FD000E9008091E80080FF0CC050E040E060E222
:103FE00070E0CF010E94CD218091E8008E77809310
:103FF000E800CF70C093E900CF91089580919202BC
:10400000811109C00E94AC230E9409248091E20022
:1040100084608093E20008951092920208950895BA
:104020000895089542E061EC81E00E94282342E275
:1040300061EC84E00E94282342E261EC82E00E946D
:10404000282342E260EC83E00C94282380919502BF
:10405000833009F461C030F48130D1F1823009F449
:104060009DC008958A3009F489C08B3009F46FC06F
:10407000893009F050C080919402813209F04BC020
:104080008091980290919902009719F0029709F097
:1040900042C08091E800877F8093E8008091E8002B
:1040A00082FF35C09091F3008091F200029729F4CD
:1040B0008091F1008B7F813021F48091F100809319
:1040C00077028091E8008B778093E8000C945C2362
:1040D00080919402813AF9F48091E800877F80937F
:1040E000E8008091980290919902892B61F460E236
:1040F00087E592E070E00E946B228091E8008B7768
:104100008093E800089560E090E080E0F3CF809134
:1041100093028111C3CF089580919402813AD9F717
:104120008091980290919902892BA9F78091E800DB
:10413000877F8093E8008091E80080FFFCCF80912A
:1041400016018093F1008091E8008E77BDCF8091B9
:104150009402813201F78091980290919902892B03
:10416000D1F68091E800877F8093E8000E945C236D
:1041700080919602809316010C946A1680919402A5
:10418000813249F68091E800877F8093E8000E94A1
:104190005C23809197028093780208958091940225
:1041A000813A09F0B8CF8091E800877F8093E800DA
:1041B0008091E80080FFFCCF80917802C2CFCDB71C
:1041C000DEB7A0970FB6F894DEBF0FBECDBF84B7A1
:1041D000877F84BF0FB6F894A895809160008861AE
:1041E00080936000109260000FBE80E890E00FB6F0
:1041F000F89480936100909361000FBE0E94E111DA
:104200000E94AC230E9409248091E2008460809384
:10421000E20078940E9492260E94F1118CE091E0D5
:104220000E945B1113E0809193028530C9F00E94D7
:10423000FB11809193028430D1F00E94EF110E9413
:10424000F011F1CF0E940B1E80919102882341F062
:104250000E943A1E882321F00E94B7210E946A160C
:1042600080919302853071F30E94521EE0CF10932B
:10427000E9008091E80082FFE0CF8091E80090E0C3
:1042800085FF09C050E040E060E270E0CE01019699
:104290000E941C2291E08091E8008B778093E800D7
:1042A000992359F260E2CE0101960E947B0BC5CFA3
:1042B0000C945A21292F33272330310521F168F43A
:1042C0002130310509F449C02230310509F44AC0D2
:1042D00090E080E030E020E029C02132310581F11A
:1042E00022323105A9F76330710590F7FB01EE0F1B
:1042F000FF1FEC56FE4F208131816F567E4FFB0130
:10430000808190E013C099278130910599F0009742
:1043100041F08230910589F00397D1F6E4EEF3E0A5
:1043200002C0E6E2F4E0849190E09F01FA0131835B
:1043300020830895E8E1F4E0F6CFE2E0F4E0F3CF83
:104340006330710528F6660F771FFB01E656FE4FB6
:104350002081318189E090E0E9CF82E190E025E899
:1043600034E0E4CF8BE590E02AE234E0DFCF80E177
:1043700089BD82E189BD09B400FEFDCF8091D800DE
:104380008F7D8093D8008091E00082608093E00070
:104390008091E00081FDFCCF0895AF92BF92CF9253
:1043A000DF92FF920F931F93CF93DF936C01EB018A
:1043B0008A010E947B23F82E811123C0011511056B
:1043C00039F0F80180819181C81BD90BC80ED91E24
:1043D000B12CA12C2097A9F08091E80085FD22C086
:1043E0008091E8008E778093E80001151105A1F017
:1043F000F80180819181A80EB91EB182A08285E06A
:10440000F82E8F2DDF91CF911F910F91FF90DF90AC
:10441000CF90BF90AF9008950E947B238823D1F264
:10442000F82EEFCFF60181916F018093F100219773
:10443000FFEFAF1ABF0ACECFAF92BF92CF92DF92FB
:10444000FF920F931F93CF93DF936C01EB018A01CF
:104450000E947B23F82E811123C00115110539F02C
:10446000F80180819181C81BD90BC80ED91EB12CCF
:10447000A12C2097A9F08091E80085FD22C08091B1
:10448000E8008B778093E80001151105A1F0F80191
:1044900080819181A80EB91EB182A08285E0F82E9C
:1044A0008F2DDF91CF911F910F91FF90DF90CF90D3
:1044B000BF90AF9008950E947B238823D1F2F82EFD
:1044C000EFCF8091F100F60181936F012197FFEF0B
:1044D000AF1ABF0ACECFFC0180919A0290919B0245
:1044E00086179707A0F06115710529F49091E800EF
:1044F0009E779093E80090E06115710551F4911159
:1045000008C08091E80082FF34C080E00895BC01BB
:10451000F2CF809193028823C1F18530C1F180915F
:10452000E80083FD30C08091E80082FDEACF8091F1
:10453000E80080FFE1CF8091F3002091F200382F56
:104540006115710519F02830310558F091E02830D7
:10455000310509F090E02091E8002E772093E800E3
:10456000CBCF81918093F100615071092F5F3F4F54
:10457000E7CF80919302882341F0853041F080910C
:10458000E80083FFBECF81E0089582E0089583E0D4
:104590000895FC0180919A0290919B0286179707DB
:1045A000A0F06115710529F48091E8008E77809361
:1045B000E80090E06115710551F4911108C08091F7
:1045C000E80082FF35C080E00895BC01F2CF809101
:1045D00093028823C9F18530C9F18091E80083FDF9
:1045E00031C08091E80082FDEACF8091E80080FF31
:1045F000E1CF8091F3002091F200382F6115710511
:1046000019F02830310558F091E02830310509F0D3
:1046100090E08091E8008E778093E800CBCF849182
:104620008093F1003196615071092F5F3F4FE6CFC3
:1046300080919302882341F0853041F08091E80019
:1046400083FFBDCF81E0089582E0089583E008955F
:10465000982F973028F08F708093E90081E00895BB
:104660009093E900242F762F50E0981731F0709145
:10467000EC002091ED005091F00021FD02C09F5F01
:10468000E8CF3091EB003E7F3093EB003091ED00AE
:104690003D7F3093ED003091EB0031603093EB00C3
:1046A0007093EC002093ED005093F0002091EE0009
:1046B00027FDE5CF80E008958091940287FF13C025
:1046C0008091E80082FF06C08091E8008B7780939C
:1046D000E80004C0809193028111F2CF0895809187
:1046E00093028823D9F38091E80080FFF8CF80916E
:1046F000E8008E77ECCF2091E4003091E50095E65C
:10470000A9012091EC00822F817020FF06C08091CA
:10471000E80080FF06C080E008952091E80022FDB7
:104720001AC080919302882389F0853089F08091A6
:10473000EB0085FD0FC02091E4003091E5004217A9
:104740005307F9F29150E1F684E0089582E008956C
:1047500083E0089581E008950E941A240E94222493
:10476000E0EEF0E0808181608083E8EDF0E0808120
:104770008F77808319BCA7EDB0E08C918E7F8C93EE
:1047800080818F7E80831092920208950F931F93F1
:10479000CF93DF930E941A240E942224C8EDD0E018
:1047A00088818F77888388818068888388818F7DDE
:1047B000888319BC1092930210928F02109291027A
:1047C0001092900200EE10E0F80180818B7F8083D0
:1047D00088818160888342E060E080E00E94282335
:1047E000E1EEF0E080818E7F8083E2EEF0E0808178
:1047F00081608083808188608083F80180818E7FE2
:104800008083888180618883DF91CF911F910F9190
:104810000895E8EDF0E080818F7E8083E7EDF0E0A1
:1048200080818160808384E082BF81E080939202F6
:104830000C94C623E8EDF0E080818E7F8083109297
:10484000E20008951092DA001092E10008951F929C
:104850000F920FB60F9211242F933F934F935F93B4
:104860006F937F938F939F93AF93BF93EF93FF9338
:104870008091E10082FF0BC08091E20082FF07C0BF
:104880008091E1008B7F8093E1000E9491268091CE
:10489000DA0080FF19C08091D80080FF15C0809198
:1048A000DA008E7F8093DA008091D90080FF96C075
:1048B00080E189BD82E189BD09B400FEFDCF81E0C0
:1048C000809393020E94FE1F8091E10080FF19C037
:1048D0008091E20080FF15C08091E2008E7F80937E
:1048E000E2008091E20080618093E2008091D80034
:1048F00080628093D80019BC85E0809393020E9467
:1049000010208091E10084FF2BC08091E20084FFA1
:1049100027C080E189BD82E189BD89B5982F91705A
:1049200080FFFBCF8091D8008F7D8093D80080914D
:10493000E1008F7E8093E1008091E2008F7E809382
:10494000E2008091E20081608093E20080918F021A
:10495000882309F449C084E0809393020E941120C7
:104960008091E10083FF29C08091E20083FF25C090
:104970008091E100877F8093E10082E08093930241
:1049800010928F028091E1008E7F8093E1008091F0
:10499000E2008E7F8093E2008091E200806180934C
:1049A000E20042E060E080E00E9428238091F00075
:1049B00088608093F0000E940F20FF91EF91BF91DB
:1049C000AF919F918F917F916F915F914F913F91A7
:1049D0002F910F900FBE0F901F90189519BC109239
:1049E00093020E940C2070CF8091E30087FD93E03A
:1049F00090939302B3CF1F920F920FB60F92112490
:104A00002F933F934F935F936F937F938F939F93D6
:104A1000AF93BF93CF93DF93EF93FF93D091E900D0
:104A2000DF708091EC00C82FC17080FDC0E810924B
:104A3000E9008091F000877F8093F00078940E94D5
:104A40003F251092E9008091F00088608093F0008B
:104A5000CD2BCF70C093E900FF91EF91DF91CF9103
:104A6000BF91AF919F918F917F916F915F914F9186
:104A70003F912F910F900FBE0F901F9018951F938D
:104A8000CF93DF93CDB7DEB7AA970FB6F894DEBF0A
:104A90000FBECDBF84E992E02091F100FC0121938B
:104AA000CF01F2E08C399F07B9F70E942620809150
:104AB000E80083FF1EC180919402909195029A3084
:104AC00008F017C1E92FF0E0EC5AF84D0C94C1261C
:104AD000803899F0823809F00CC1809198028F706B
:104AE000873008F006C18093E9008091EB0085FBD8
:104AF000882780F91092E90006C080919002909179
:104B00009102911182609091E800977F9093E80064
:104B10008093F1001092F1008091E8008E77E5C05B
:104B2000882309F4D3C0823009F0E3C08091960253
:104B30008111D6C0809198028F702FEF280F2630F8
:104B400008F0D7C08093E9002091EB0020FFC8C097
:104B5000933031F48091EB0080628093EB00C0C011
:104B60009091EB0090619093EB0021E030E001C068
:104B7000220F8A95EAF72093EA001092EA008091CA
:104B8000EB008860EACF8111B4C0109196021F77C4
:104B90008091E3008078812B8093E3008091E8008E
:104BA000877F8093E8000E945C238091E80080FF6B
:104BB000FCCF8091E30080688093E30082E01111D4
:104BC00083E08093930295C08058823008F091C0B2
:104BD00080919602909197028C3D23E09207A1F577
:104BE00083E08A838AE289834FB7F894DE011396C3
:104BF00020E03EE051E2E32FF0E050935700E491D3
:104C000020FF03C0E295EF703F5FEF708E2F90E0C2
:104C1000EA30C0F0C7968D939D932F5F243159F7EA
:104C20004FBF8091E800877F8093E8006AE270E0E0
:104C3000CE0101960E946B228091E8008B778093D1
:104C4000E80057C0C096E7CF609198027091990232
:104C5000AE014F5F5F4F0E945821BC01892B09F4C0
:104C600048C09091E800977F9093E80089819A81ED
:104C70000E94C922E1CF8038E1F58091E800877F6A
:104C80008093E80080918F028093F10045CF8111DD
:104C900030C090919602923060F58091E800877F55
:104CA0008093E80090938F020E945C2380918F0292
:104CB000882311F084E005C08091E30087FDFACFDE
:104CC00081E0809393020E94122013C0809196028B
:104CD000813079F481E0933009F080E08093910293
:104CE0001092E9008091E800877F8093E8000E949D
:104CF0005C238091E80083FF0AC08091E800877FF1
:104D00008093E8008091EB0080628093EB00AA968C
:104D10000FB6F894DEBF0FBECDBFDF91CF911F91CC
:104D200008950895CF93809193028823A1F0C091B4
:104D3000E900CF709091EC00892F817090FD80E8A0
:104D4000C82B1092E9008091E80083FD0E943F2566
:104D5000CF70C093E900CF91089597FB072E16F40A
:104D6000009407D077FD09D00E94CE2607FC05D01D
:104D70003EF4909581959F4F0895709561957F4F72
:104D80000895EE0FFF1F0590F491E02D0994692717
:104D9000962769277827872778270895AA1BBB1BA2
:104DA00051E107C0AA1FBB1FA617B70710F0A61B2B
:104DB000B70B881F991F5A95A9F780959095BC014C
:104DC000CD010895FB01DC0102C005900D92415018
:104DD0005040D8F70895DC0101C06D934150504018
:104DE000E0F70895F999FECF92BD81BDF89A992711
:104DF00080B50895A8E1B0E042E050E00C94262789
:104E0000262FF999FECF92BD81BDF89A019700B483
:104E1000021639F01FBA20BD0FB6F894FA9AF99A23
:104E20000FBE08950396272F0E9401270E94002796
:104E3000252F0E940127242F0C9401270196272F4C
:104E40000E9401270C940027DC01CB01FC01F99999
:104E5000FECF06C0F2BDE1BDF89A319600B40D92C6
:104E600041505040B8F70895F894FFCF31143114F1
:104E700089148914DB14F7145E145E14041590155C
:104E80009F159F15FB155E145E140416791679168E
:104E90008216821684168216821682167916791662
:104EA00089168216821689166825902579269025FE
:0C4EB0007926C325E42579263B264726F9
:104EBC002808641E140A321E01003202361F941F89
:104ECC00731F6F1F6B1F01D67C5521D658F1A0E2C2
:104EDC0000E900EA00B500B600B700CD008301CCB4
:104EEC00008A019201940121022302240225022648
:104EFC000227022A02B300B4006F00700081828383
:104F0C003435366667F6F73091929394C6F5F0F126
:104F1C00E200E900EA00B500B600B700CD0083015D
:104F2C00CC008A0192019401210223022402250261
:104F3C00260227022A02B300B4006F00700081829F
:104F4C00834022BC75059704B9043C0455047504D0
:00000001FF
